{
  "_format": "hh-sol-artifact-1",
  "contractName": "LearnChain",
  "sourceName": "contracts/LearnChain.sol",
  "abi": [
    {
      "inputs": [],
      "stateMutability": "nonpayable",
      "type": "constructor"
    },
    {
      "inputs": [
        {
          "internalType": "address",
          "name": "spender",
          "type": "address"
        },
        {
          "internalType": "uint256",
          "name": "allowance",
          "type": "uint256"
        },
        {
          "internalType": "uint256",
          "name": "needed",
          "type": "uint256"
        }
      ],
      "name": "ERC20InsufficientAllowance",
      "type": "error"
    },
    {
      "inputs": [
        {
          "internalType": "address",
          "name": "sender",
          "type": "address"
        },
        {
          "internalType": "uint256",
          "name": "balance",
          "type": "uint256"
        },
        {
          "internalType": "uint256",
          "name": "needed",
          "type": "uint256"
        }
      ],
      "name": "ERC20InsufficientBalance",
      "type": "error"
    },
    {
      "inputs": [
        {
          "internalType": "address",
          "name": "approver",
          "type": "address"
        }
      ],
      "name": "ERC20InvalidApprover",
      "type": "error"
    },
    {
      "inputs": [
        {
          "internalType": "address",
          "name": "receiver",
          "type": "address"
        }
      ],
      "name": "ERC20InvalidReceiver",
      "type": "error"
    },
    {
      "inputs": [
        {
          "internalType": "address",
          "name": "sender",
          "type": "address"
        }
      ],
      "name": "ERC20InvalidSender",
      "type": "error"
    },
    {
      "inputs": [
        {
          "internalType": "address",
          "name": "spender",
          "type": "address"
        }
      ],
      "name": "ERC20InvalidSpender",
      "type": "error"
    },
    {
      "anonymous": false,
      "inputs": [
        {
          "indexed": true,
          "internalType": "address",
          "name": "owner",
          "type": "address"
        },
        {
          "indexed": true,
          "internalType": "address",
          "name": "spender",
          "type": "address"
        },
        {
          "indexed": false,
          "internalType": "uint256",
          "name": "value",
          "type": "uint256"
        }
      ],
      "name": "Approval",
      "type": "event"
    },
    {
      "anonymous": false,
      "inputs": [
        {
          "indexed": true,
          "internalType": "address",
          "name": "from",
          "type": "address"
        },
        {
          "indexed": true,
          "internalType": "address",
          "name": "to",
          "type": "address"
        },
        {
          "indexed": false,
          "internalType": "uint256",
          "name": "value",
          "type": "uint256"
        }
      ],
      "name": "Transfer",
      "type": "event"
    },
    {
      "inputs": [
        {
          "internalType": "address",
          "name": "newMember",
          "type": "address"
        }
      ],
      "name": "addMember",
      "outputs": [],
      "stateMutability": "nonpayable",
      "type": "function"
    },
    {
      "inputs": [
        {
          "internalType": "address",
          "name": "owner",
          "type": "address"
        },
        {
          "internalType": "address",
          "name": "spender",
          "type": "address"
        }
      ],
      "name": "allowance",
      "outputs": [
        {
          "internalType": "uint256",
          "name": "",
          "type": "uint256"
        }
      ],
      "stateMutability": "view",
      "type": "function"
    },
    {
      "inputs": [
        {
          "internalType": "address",
          "name": "spender",
          "type": "address"
        },
        {
          "internalType": "uint256",
          "name": "value",
          "type": "uint256"
        }
      ],
      "name": "approve",
      "outputs": [
        {
          "internalType": "bool",
          "name": "",
          "type": "bool"
        }
      ],
      "stateMutability": "nonpayable",
      "type": "function"
    },
    {
      "inputs": [
        {
          "internalType": "address",
          "name": "account",
          "type": "address"
        }
      ],
      "name": "balanceOf",
      "outputs": [
        {
          "internalType": "uint256",
          "name": "",
          "type": "uint256"
        }
      ],
      "stateMutability": "view",
      "type": "function"
    },
    {
      "inputs": [
        {
          "internalType": "address",
          "name": "",
          "type": "address"
        }
      ],
      "name": "balances",
      "outputs": [
        {
          "internalType": "uint256",
          "name": "",
          "type": "uint256"
        }
      ],
      "stateMutability": "view",
      "type": "function"
    },
    {
      "inputs": [
        {
          "internalType": "uint256",
          "name": "_proposalId",
          "type": "uint256"
        }
      ],
      "name": "completeProposalVoting",
      "outputs": [],
      "stateMutability": "nonpayable",
      "type": "function"
    },
    {
      "inputs": [
        {
          "internalType": "string",
          "name": "_name",
          "type": "string"
        },
        {
          "internalType": "string",
          "name": "_description",
          "type": "string"
        },
        {
          "internalType": "uint256",
          "name": "_votingWeakPeriod",
          "type": "uint256"
        }
      ],
      "name": "createProposal",
      "outputs": [],
      "stateMutability": "nonpayable",
      "type": "function"
    },
    {
      "inputs": [],
      "name": "decimals",
      "outputs": [
        {
          "internalType": "uint8",
          "name": "",
          "type": "uint8"
        }
      ],
      "stateMutability": "view",
      "type": "function"
    },
    {
      "inputs": [
        {
          "internalType": "uint256",
          "name": "_proposalId",
          "type": "uint256"
        }
      ],
      "name": "execution",
      "outputs": [],
      "stateMutability": "nonpayable",
      "type": "function"
    },
    {
      "inputs": [],
      "name": "getCompletedProposals",
      "outputs": [
        {
          "components": [
            {
              "internalType": "uint256",
              "name": "id",
              "type": "uint256"
            },
            {
              "internalType": "string",
              "name": "name",
              "type": "string"
            },
            {
              "internalType": "string",
              "name": "description",
              "type": "string"
            },
            {
              "internalType": "uint256",
              "name": "votedYes",
              "type": "uint256"
            },
            {
              "internalType": "uint256",
              "name": "votedNo",
              "type": "uint256"
            },
            {
              "internalType": "uint256",
              "name": "votingPeriod",
              "type": "uint256"
            },
            {
              "internalType": "address",
              "name": "owner",
              "type": "address"
            },
            {
              "internalType": "uint256",
              "name": "voteCount",
              "type": "uint256"
            },
            {
              "internalType": "uint256",
              "name": "completedOn",
              "type": "uint256"
            },
            {
              "internalType": "bool",
              "name": "isComplete",
              "type": "bool"
            },
            {
              "internalType": "bool",
              "name": "isExecuted",
              "type": "bool"
            }
          ],
          "internalType": "struct LearnChain.Proposal[]",
          "name": "",
          "type": "tuple[]"
        }
      ],
      "stateMutability": "view",
      "type": "function"
    },
    {
      "inputs": [
        {
          "internalType": "address",
          "name": "_member",
          "type": "address"
        }
      ],
      "name": "getExponentialCost",
      "outputs": [
        {
          "internalType": "uint256",
          "name": "",
          "type": "uint256"
        }
      ],
      "stateMutability": "view",
      "type": "function"
    },
    {
      "inputs": [],
      "name": "getPendingProposals",
      "outputs": [
        {
          "components": [
            {
              "internalType": "uint256",
              "name": "id",
              "type": "uint256"
            },
            {
              "internalType": "string",
              "name": "name",
              "type": "string"
            },
            {
              "internalType": "string",
              "name": "description",
              "type": "string"
            },
            {
              "internalType": "uint256",
              "name": "votedYes",
              "type": "uint256"
            },
            {
              "internalType": "uint256",
              "name": "votedNo",
              "type": "uint256"
            },
            {
              "internalType": "uint256",
              "name": "votingPeriod",
              "type": "uint256"
            },
            {
              "internalType": "address",
              "name": "owner",
              "type": "address"
            },
            {
              "internalType": "uint256",
              "name": "voteCount",
              "type": "uint256"
            },
            {
              "internalType": "uint256",
              "name": "completedOn",
              "type": "uint256"
            },
            {
              "internalType": "bool",
              "name": "isComplete",
              "type": "bool"
            },
            {
              "internalType": "bool",
              "name": "isExecuted",
              "type": "bool"
            }
          ],
          "internalType": "struct LearnChain.Proposal[]",
          "name": "",
          "type": "tuple[]"
        }
      ],
      "stateMutability": "view",
      "type": "function"
    },
    {
      "inputs": [
        {
          "internalType": "address",
          "name": "_member",
          "type": "address"
        }
      ],
      "name": "isMember",
      "outputs": [
        {
          "internalType": "bool",
          "name": "",
          "type": "bool"
        }
      ],
      "stateMutability": "view",
      "type": "function"
    },
    {
      "inputs": [
        {
          "internalType": "uint256",
          "name": "",
          "type": "uint256"
        }
      ],
      "name": "members",
      "outputs": [
        {
          "internalType": "address",
          "name": "",
          "type": "address"
        }
      ],
      "stateMutability": "view",
      "type": "function"
    },
    {
      "inputs": [],
      "name": "name",
      "outputs": [
        {
          "internalType": "string",
          "name": "",
          "type": "string"
        }
      ],
      "stateMutability": "view",
      "type": "function"
    },
    {
      "inputs": [
        {
          "internalType": "address",
          "name": "",
          "type": "address"
        }
      ],
      "name": "proposalOwner",
      "outputs": [
        {
          "internalType": "uint256",
          "name": "id",
          "type": "uint256"
        },
        {
          "internalType": "string",
          "name": "name",
          "type": "string"
        },
        {
          "internalType": "address",
          "name": "owner",
          "type": "address"
        },
        {
          "internalType": "bool",
          "name": "isComplete",
          "type": "bool"
        }
      ],
      "stateMutability": "view",
      "type": "function"
    },
    {
      "inputs": [
        {
          "internalType": "uint256",
          "name": "_proposalId",
          "type": "uint256"
        }
      ],
      "name": "proposalResult",
      "outputs": [
        {
          "internalType": "string",
          "name": "",
          "type": "string"
        }
      ],
      "stateMutability": "view",
      "type": "function"
    },
    {
      "inputs": [
        {
          "internalType": "uint256",
          "name": "",
          "type": "uint256"
        }
      ],
      "name": "proposals",
      "outputs": [
        {
          "internalType": "uint256",
          "name": "id",
          "type": "uint256"
        },
        {
          "internalType": "string",
          "name": "name",
          "type": "string"
        },
        {
          "internalType": "string",
          "name": "description",
          "type": "string"
        },
        {
          "internalType": "uint256",
          "name": "votedYes",
          "type": "uint256"
        },
        {
          "internalType": "uint256",
          "name": "votedNo",
          "type": "uint256"
        },
        {
          "internalType": "uint256",
          "name": "votingPeriod",
          "type": "uint256"
        },
        {
          "internalType": "address",
          "name": "owner",
          "type": "address"
        },
        {
          "internalType": "uint256",
          "name": "voteCount",
          "type": "uint256"
        },
        {
          "internalType": "uint256",
          "name": "completedOn",
          "type": "uint256"
        },
        {
          "internalType": "bool",
          "name": "isComplete",
          "type": "bool"
        },
        {
          "internalType": "bool",
          "name": "isExecuted",
          "type": "bool"
        }
      ],
      "stateMutability": "view",
      "type": "function"
    },
    {
      "inputs": [
        {
          "internalType": "address",
          "name": "memberToRemove",
          "type": "address"
        }
      ],
      "name": "removeMember",
      "outputs": [],
      "stateMutability": "nonpayable",
      "type": "function"
    },
    {
      "inputs": [
        {
          "internalType": "uint256",
          "name": "_proposalId",
          "type": "uint256"
        }
      ],
      "name": "removeProposal",
      "outputs": [],
      "stateMutability": "nonpayable",
      "type": "function"
    },
    {
      "inputs": [],
      "name": "symbol",
      "outputs": [
        {
          "internalType": "string",
          "name": "",
          "type": "string"
        }
      ],
      "stateMutability": "view",
      "type": "function"
    },
    {
      "inputs": [],
      "name": "totalSupply",
      "outputs": [
        {
          "internalType": "uint256",
          "name": "",
          "type": "uint256"
        }
      ],
      "stateMutability": "view",
      "type": "function"
    },
    {
      "inputs": [
        {
          "internalType": "address",
          "name": "to",
          "type": "address"
        },
        {
          "internalType": "uint256",
          "name": "value",
          "type": "uint256"
        }
      ],
      "name": "transfer",
      "outputs": [
        {
          "internalType": "bool",
          "name": "",
          "type": "bool"
        }
      ],
      "stateMutability": "nonpayable",
      "type": "function"
    },
    {
      "inputs": [
        {
          "internalType": "address",
          "name": "from",
          "type": "address"
        },
        {
          "internalType": "address",
          "name": "to",
          "type": "address"
        },
        {
          "internalType": "uint256",
          "name": "value",
          "type": "uint256"
        }
      ],
      "name": "transferFrom",
      "outputs": [
        {
          "internalType": "bool",
          "name": "",
          "type": "bool"
        }
      ],
      "stateMutability": "nonpayable",
      "type": "function"
    },
    {
      "inputs": [
        {
          "internalType": "uint256",
          "name": "_proposalId",
          "type": "uint256"
        },
        {
          "internalType": "enum LearnChain.VotedFor",
          "name": "_voteFor",
          "type": "uint8"
        }
      ],
      "name": "voteForProposal",
      "outputs": [],
      "stateMutability": "nonpayable",
      "type": "function"
    }
  ],
  "bytecode": "0x60806040523480156200001157600080fd5b506040518060400160405280600b81526020017f566f74696e67546f6b656e0000000000000000000000000000000000000000008152506040518060400160405280600381526020017f56544b000000000000000000000000000000000000000000000000000000000081525081600390816200008f9190620006ce565b508060049081620000a19190620006ce565b50505033600560006101000a81548173ffffffffffffffffffffffffffffffffffffffff021916908373ffffffffffffffffffffffffffffffffffffffff1602179055506007339080600181540180825580915050600190039060005260206000200160009091909190916101000a81548173ffffffffffffffffffffffffffffffffffffffff021916908373ffffffffffffffffffffffffffffffffffffffff16021790555062000188336200015d6200018e60201b60201c565b600a6200016b919062000945565b6305f5e1006200017c919062000996565b6200019760201b60201c565b62000ae9565b60006012905090565b600073ffffffffffffffffffffffffffffffffffffffff168273ffffffffffffffffffffffffffffffffffffffff16036200020c5760006040517fec442f0500000000000000000000000000000000000000000000000000000000815260040162000203919062000a26565b60405180910390fd5b62000220600083836200022460201b60201c565b5050565b600073ffffffffffffffffffffffffffffffffffffffff168373ffffffffffffffffffffffffffffffffffffffff16036200027a5780600260008282546200026d919062000a43565b9250508190555062000350565b60008060008573ffffffffffffffffffffffffffffffffffffffff1673ffffffffffffffffffffffffffffffffffffffff1681526020019081526020016000205490508181101562000309578381836040517fe450d38c000000000000000000000000000000000000000000000000000000008152600401620003009392919062000a8f565b60405180910390fd5b8181036000808673ffffffffffffffffffffffffffffffffffffffff1673ffffffffffffffffffffffffffffffffffffffff16815260200190815260200160002081905550505b600073ffffffffffffffffffffffffffffffffffffffff168273ffffffffffffffffffffffffffffffffffffffff16036200039b5780600260008282540392505081905550620003e8565b806000808473ffffffffffffffffffffffffffffffffffffffff1673ffffffffffffffffffffffffffffffffffffffff168152602001908152602001600020600082825401925050819055505b8173ffffffffffffffffffffffffffffffffffffffff168373ffffffffffffffffffffffffffffffffffffffff167fddf252ad1be2c89b69c2b068fc378daa952ba7f163c4a11628f55a4df523b3ef8360405162000447919062000acc565b60405180910390a3505050565b600081519050919050565b7f4e487b7100000000000000000000000000000000000000000000000000000000600052604160045260246000fd5b7f4e487b7100000000000000000000000000000000000000000000000000000000600052602260045260246000fd5b60006002820490506001821680620004d657607f821691505b602082108103620004ec57620004eb6200048e565b5b50919050565b60008190508160005260206000209050919050565b60006020601f8301049050919050565b600082821b905092915050565b600060088302620005567fffffffffffffffffffffffffffffffffffffffffffffffffffffffffffffffff8262000517565b62000562868362000517565b95508019841693508086168417925050509392505050565b6000819050919050565b6000819050919050565b6000620005af620005a9620005a3846200057a565b62000584565b6200057a565b9050919050565b6000819050919050565b620005cb836200058e565b620005e3620005da82620005b6565b84845462000524565b825550505050565b600090565b620005fa620005eb565b62000607818484620005c0565b505050565b5b818110156200062f5762000623600082620005f0565b6001810190506200060d565b5050565b601f8211156200067e576200064881620004f2565b620006538462000507565b8101602085101562000663578190505b6200067b620006728562000507565b8301826200060c565b50505b505050565b600082821c905092915050565b6000620006a36000198460080262000683565b1980831691505092915050565b6000620006be838362000690565b9150826002028217905092915050565b620006d98262000454565b67ffffffffffffffff811115620006f557620006f46200045f565b5b620007018254620004bd565b6200070e82828562000633565b600060209050601f83116001811462000746576000841562000731578287015190505b6200073d8582620006b0565b865550620007ad565b601f1984166200075686620004f2565b60005b82811015620007805784890151825560018201915060208501945060208101905062000759565b86831015620007a057848901516200079c601f89168262000690565b8355505b6001600288020188555050505b505050505050565b7f4e487b7100000000000000000000000000000000000000000000000000000000600052601160045260246000fd5b60008160011c9050919050565b6000808291508390505b600185111562000843578086048111156200081b576200081a620007b5565b5b60018516156200082b5780820291505b80810290506200083b85620007e4565b9450620007fb565b94509492505050565b6000826200085e576001905062000931565b816200086e576000905062000931565b81600181146200088757600281146200089257620008c8565b600191505062000931565b60ff841115620008a757620008a6620007b5565b5b8360020a915084821115620008c157620008c0620007b5565b5b5062000931565b5060208310610133831016604e8410600b8410161715620009025782820a905083811115620008fc57620008fb620007b5565b5b62000931565b620009118484846001620007f1565b925090508184048111156200092b576200092a620007b5565b5b81810290505b9392505050565b600060ff82169050919050565b600062000952826200057a565b91506200095f8362000938565b92506200098e7fffffffffffffffffffffffffffffffffffffffffffffffffffffffffffffffff84846200084c565b905092915050565b6000620009a3826200057a565b9150620009b0836200057a565b9250828202620009c0816200057a565b91508282048414831517620009da57620009d9620007b5565b5b5092915050565b600073ffffffffffffffffffffffffffffffffffffffff82169050919050565b600062000a0e82620009e1565b9050919050565b62000a208162000a01565b82525050565b600060208201905062000a3d600083018462000a15565b92915050565b600062000a50826200057a565b915062000a5d836200057a565b925082820190508082111562000a785762000a77620007b5565b5b92915050565b62000a89816200057a565b82525050565b600060608201905062000aa6600083018662000a15565b62000ab5602083018562000a7e565b62000ac4604083018462000a7e565b949350505050565b600060208201905062000ae3600083018462000a7e565b92915050565b61462d8062000af96000396000f3fe608060405234801561001057600080fd5b50600436106101735760003560e01c806359bb6dfd116100de57806395d89b4111610097578063a9059cbb11610071578063a9059cbb146104a3578063ca6d56dc146104d3578063dd62ed3e146104ef578063dd81d0ac1461051f57610173565b806395d89b4114610437578063a230c52414610455578063a80db6fc1461048557610173565b806359bb6dfd146103535780635daf08ca1461036f5780635dccebba1461039f57806370a08231146103bb578063803a3099146103eb57806383b224411461041b57610173565b806318160ddd1161013057806318160ddd1461026857806323b872dd1461028657806327e235e3146102b6578063313ce567146102e65780634ce4e6c7146103045780634eef546d1461032057610173565b8063013cf08b1461017857806306fdde03146101b2578063095ea7b3146101d05780630b1ca49a146102005780630ce0ebf41461021c5780631022b30b14610238575b600080fd5b610192600480360381019061018d9190612f90565b61053d565b6040516101a99b9a999897969594939291906130b8565b60405180910390f35b6101ba6106e1565b6040516101c79190613171565b60405180910390f35b6101ea60048036038101906101e591906131bf565b610773565b6040516101f791906131ff565b60405180910390f35b61021a6004803603810190610215919061321a565b610796565b005b6102366004803603810190610231919061337c565b610a41565b005b610252600480360381019061024d9190612f90565b610d2e565b60405161025f9190613171565b60405180910390f35b610270610eba565b60405161027d9190613407565b60405180910390f35b6102a0600480360381019061029b9190613422565b610ec4565b6040516102ad91906131ff565b60405180910390f35b6102d060048036038101906102cb919061321a565b610ef3565b6040516102dd9190613407565b60405180910390f35b6102ee610f0b565b6040516102fb9190613491565b60405180910390f35b61031e60048036038101906103199190612f90565b610f14565b005b61033a6004803603810190610335919061321a565b61115b565b60405161034a94939291906134ac565b60405180910390f35b61036d60048036038101906103689190612f90565b611240565b005b61038960048036038101906103849190612f90565b6114f4565b60405161039691906134f8565b60405180910390f35b6103b960048036038101906103b49190612f90565b611533565b005b6103d560048036038101906103d0919061321a565b6116e2565b6040516103e29190613407565b60405180910390f35b6104056004803603810190610400919061321a565b61172a565b6040516104129190613407565b60405180910390f35b61043560048036038101906104309190613538565b611812565b005b61043f611d85565b60405161044c9190613171565b60405180910390f35b61046f600480360381019061046a919061321a565b611e17565b60405161047c91906131ff565b60405180910390f35b61048d611f0c565b60405161049a91906137a7565b60405180910390f35b6104bd60048036038101906104b891906131bf565b612250565b6040516104ca91906131ff565b60405180910390f35b6104ed60048036038101906104e8919061321a565b612273565b005b610509600480360381019061050491906137c9565b612421565b6040516105169190613407565b60405180910390f35b6105276124a8565b60405161053491906137a7565b60405180910390f35b600960205280600052604060002060009150905080600001549080600101805461056690613838565b80601f016020809104026020016040519081016040528092919081815260200182805461059290613838565b80156105df5780601f106105b4576101008083540402835291602001916105df565b820191906000526020600020905b8154815290600101906020018083116105c257829003601f168201915b5050505050908060020180546105f490613838565b80601f016020809104026020016040519081016040528092919081815260200182805461062090613838565b801561066d5780601f106106425761010080835404028352916020019161066d565b820191906000526020600020905b81548152906001019060200180831161065057829003601f168201915b5050505050908060030154908060040154908060050154908060060160009054906101000a900473ffffffffffffffffffffffffffffffffffffffff16908060070154908060080154908060090160009054906101000a900460ff16908060090160019054906101000a900460ff1690508b565b6060600380546106f090613838565b80601f016020809104026020016040519081016040528092919081815260200182805461071c90613838565b80156107695780601f1061073e57610100808354040283529160200191610769565b820191906000526020600020905b81548152906001019060200180831161074c57829003601f168201915b5050505050905090565b60008061077e6127ee565b905061078b8185856127f6565b600191505092915050565b600560009054906101000a900473ffffffffffffffffffffffffffffffffffffffff1673ffffffffffffffffffffffffffffffffffffffff163373ffffffffffffffffffffffffffffffffffffffff1614610826576040517f08c379a000000000000000000000000000000000000000000000000000000000815260040161081d906138db565b60405180910390fd5b61082f81611e17565b61086e576040517f08c379a000000000000000000000000000000000000000000000000000000000815260040161086590613947565b60405180910390fd5b60005b6007805490508110156109fa578173ffffffffffffffffffffffffffffffffffffffff16600782815481106108a9576108a8613967565b5b9060005260206000200160009054906101000a900473ffffffffffffffffffffffffffffffffffffffff1673ffffffffffffffffffffffffffffffffffffffff16036109e7576007600160078054905061090391906139c5565b8154811061091457610913613967565b5b9060005260206000200160009054906101000a900473ffffffffffffffffffffffffffffffffffffffff166007828154811061095357610952613967565b5b9060005260206000200160006101000a81548173ffffffffffffffffffffffffffffffffffffffff021916908373ffffffffffffffffffffffffffffffffffffffff16021790555060078054806109ad576109ac6139f9565b5b6001900381819060005260206000200160006101000a81549073ffffffffffffffffffffffffffffffffffffffff021916905590556109fa565b80806109f290613a28565b915050610871565b50600860008273ffffffffffffffffffffffffffffffffffffffff1673ffffffffffffffffffffffffffffffffffffffff1681526020019081526020016000206000905550565b600073ffffffffffffffffffffffffffffffffffffffff16600a60003373ffffffffffffffffffffffffffffffffffffffff1673ffffffffffffffffffffffffffffffffffffffff16815260200190815260200160002060020160009054906101000a900473ffffffffffffffffffffffffffffffffffffffff1673ffffffffffffffffffffffffffffffffffffffff1614610b12576040517f08c379a0000000000000000000000000000000000000000000000000000000008152600401610b0990613ae2565b60405180910390fd5b600160066000828254610b259190613b02565b9250508190555060065460096000600654815260200190815260200160002060000181905550826009600060065481526020019081526020016000206001019081610b709190613ce2565b50816009600060065481526020019081526020016000206002019081610b969190613ce2565b506201518081610ba69190613db4565b42610bb19190613b02565b600960006006548152602001908152602001600020600501819055503360096000600654815260200190815260200160002060060160006101000a81548173ffffffffffffffffffffffffffffffffffffffff021916908373ffffffffffffffffffffffffffffffffffffffff160217905550604051806080016040528060065481526020018481526020013373ffffffffffffffffffffffffffffffffffffffff16815260200160001515815250600a60003373ffffffffffffffffffffffffffffffffffffffff1673ffffffffffffffffffffffffffffffffffffffff168152602001908152602001600020600082015181600001556020820151816001019081610cbe9190613ce2565b5060408201518160020160006101000a81548173ffffffffffffffffffffffffffffffffffffffff021916908373ffffffffffffffffffffffffffffffffffffffff16021790555060608201518160020160146101000a81548160ff021916908315150217905550905050505050565b6060600015156009600084815260200190815260200160002060090160009054906101000a900460ff16151503610d9a576040517f08c379a0000000000000000000000000000000000000000000000000000000008152600401610d9190613e42565b60405180910390fd5b600960008381526020019081526020016000206004015460096000848152602001908152602001600020600301541115610e0b576040518060400160405280601481526020017f50726f706f73616c2069732061636365707465640000000000000000000000008152509050610eb5565b600960008381526020019081526020016000206004015460096000848152602001908152602001600020600301541015610e7c576040518060400160405280601481526020017f50726f706f73616c2069732052656a65637465640000000000000000000000008152509050610eb5565b6040518060400160405280600d81526020017f50726f706f73616c20546965730000000000000000000000000000000000000081525090505b919050565b6000600254905090565b600080610ecf6127ee565b9050610edc858285612808565b610ee785858561289c565b60019150509392505050565b60086020528060005260406000206000915090505481565b60006012905090565b600560009054906101000a900473ffffffffffffffffffffffffffffffffffffffff1673ffffffffffffffffffffffffffffffffffffffff163373ffffffffffffffffffffffffffffffffffffffff1614610fa4576040517f08c379a0000000000000000000000000000000000000000000000000000000008152600401610f9b90613ed4565b60405180910390fd5b600015156009600083815260200190815260200160002060090160009054906101000a900460ff1615150361100e576040517f08c379a000000000000000000000000000000000000000000000000000000000815260040161100590613f40565b60405180910390fd5b6009600082815260200190815260200160002060008082016000905560018201600061103a9190612e6b565b60028201600061104a9190612e6b565b6003820160009055600482016000905560058201600090556006820160006101000a81549073ffffffffffffffffffffffffffffffffffffffff0219169055600782016000905560088201600090556009820160006101000a81549060ff02191690556009820160016101000a81549060ff02191690555050600a60003373ffffffffffffffffffffffffffffffffffffffff1673ffffffffffffffffffffffffffffffffffffffff16815260200190815260200160002060008082016000905560018201600061111b9190612e6b565b6002820160006101000a81549073ffffffffffffffffffffffffffffffffffffffff02191690556002820160146101000a81549060ff0219169055505050565b600a60205280600052604060002060009150905080600001549080600101805461118490613838565b80601f01602080910402602001604051908101604052809291908181526020018280546111b090613838565b80156111fd5780601f106111d2576101008083540402835291602001916111fd565b820191906000526020600020905b8154815290600101906020018083116111e057829003601f168201915b5050505050908060020160009054906101000a900473ffffffffffffffffffffffffffffffffffffffff16908060020160149054906101000a900460ff16905084565b3373ffffffffffffffffffffffffffffffffffffffff166009600083815260200190815260200160002060060160009054906101000a900473ffffffffffffffffffffffffffffffffffffffff1673ffffffffffffffffffffffffffffffffffffffff1614806112fd5750600560009054906101000a900473ffffffffffffffffffffffffffffffffffffffff1673ffffffffffffffffffffffffffffffffffffffff163373ffffffffffffffffffffffffffffffffffffffff16145b61133c576040517f08c379a000000000000000000000000000000000000000000000000000000000815260040161133390613fd2565b60405180910390fd5b600073ffffffffffffffffffffffffffffffffffffffff166009600083815260200190815260200160002060060160009054906101000a900473ffffffffffffffffffffffffffffffffffffffff1673ffffffffffffffffffffffffffffffffffffffff16036113e1576040517f08c379a00000000000000000000000000000000000000000000000000000000081526004016113d89061403e565b60405180910390fd5b42600960006006548152602001908152602001600020600501541061143b576040517f08c379a0000000000000000000000000000000000000000000000000000000008152600401611432906140aa565b60405180910390fd5b600015156009600083815260200190815260200160002060090160009054906101000a900460ff161515146114a5576040517f08c379a000000000000000000000000000000000000000000000000000000000815260040161149c90614116565b60405180910390fd5b600160096000600654815260200190815260200160002060090160006101000a81548160ff02191690831515021790555042600960008381526020019081526020016000206008018190555050565b6007818154811061150457600080fd5b906000526020600020016000915054906101000a900473ffffffffffffffffffffffffffffffffffffffff1681565b60096000828152602001908152602001600020600401546009600083815260200190815260200160002060030154116115a1576040517f08c379a0000000000000000000000000000000000000000000000000000000008152600401611598906141a8565b60405180910390fd5b600073ffffffffffffffffffffffffffffffffffffffff166009600083815260200190815260200160002060060160009054906101000a900473ffffffffffffffffffffffffffffffffffffffff1673ffffffffffffffffffffffffffffffffffffffff1603611646576040517f08c379a000000000000000000000000000000000000000000000000000000000815260040161163d9061403e565b60405180910390fd5b600015156009600083815260200190815260200160002060090160009054906101000a900460ff161515036116b0576040517f08c379a00000000000000000000000000000000000000000000000000000000081526004016116a790613f40565b60405180910390fd5b60016009600083815260200190815260200160002060090160016101000a81548160ff02191690831515021790555050565b60008060008373ffffffffffffffffffffffffffffffffffffffff1673ffffffffffffffffffffffffffffffffffffffff168152602001908152602001600020549050919050565b600080600090506000600190505b6006548111611808576000600b60008673ffffffffffffffffffffffffffffffffffffffff1673ffffffffffffffffffffffffffffffffffffffff1681526020019081526020016000206000018054905011156117f55760006002600b60008773ffffffffffffffffffffffffffffffffffffffff1673ffffffffffffffffffffffffffffffffffffffff168152602001908152602001600020600001805490506117e391906142fb565b905080836117f19190613b02565b9250505b808061180090613a28565b915050611738565b5080915050919050565b6000600181111561182657611825614346565b5b81600181111561183957611838614346565b5b1480611868575060018081111561185357611852614346565b5b81600181111561186657611865614346565b5b145b6118a7576040517f08c379a000000000000000000000000000000000000000000000000000000000815260040161189e906143c1565b60405180910390fd5b600073ffffffffffffffffffffffffffffffffffffffff166009600084815260200190815260200160002060060160009054906101000a900473ffffffffffffffffffffffffffffffffffffffff1673ffffffffffffffffffffffffffffffffffffffff160361194c576040517f08c379a00000000000000000000000000000000000000000000000000000000081526004016119439061403e565b60405180910390fd5b4260096000600654815260200190815260200160002060050154116119a6576040517f08c379a000000000000000000000000000000000000000000000000000000000815260040161199d9061442d565b60405180910390fd5b6000805b600b60003373ffffffffffffffffffffffffffffffffffffffff1673ffffffffffffffffffffffffffffffffffffffff16815260200190815260200160002060000180549050811015611a785783600b60003373ffffffffffffffffffffffffffffffffffffffff1673ffffffffffffffffffffffffffffffffffffffff1681526020019081526020016000206000018281548110611a4c57611a4b613967565b5b906000526020600020015403611a655760019150611a78565b8080611a7090613a28565b9150506119aa565b5080611b9757600b60003373ffffffffffffffffffffffffffffffffffffffff1673ffffffffffffffffffffffffffffffffffffffff168152602001908152602001600020600001839080600181540180825580915050600190039060005260206000200160009091909190915055611af033612990565b611b1b600560009054906101000a900473ffffffffffffffffffffffffffffffffffffffff16612990565b611b4433611b27610f0b565b600a611b3391906142fb565b600a611b3f9190613db4565b610773565b50611b9133600560009054906101000a900473ffffffffffffffffffffffffffffffffffffffff16611b74610f0b565b600a611b8091906142fb565b600a611b8c9190613db4565b610ec4565b50611c5b565b6000611ba23361172a565b600a611bae9190613db4565b9050611bb933612990565b611be4600560009054906101000a900473ffffffffffffffffffffffffffffffffffffffff16612990565b611c0c33611bf0610f0b565b600a611bfc91906142fb565b83611c079190613db4565b610773565b50611c5833600560009054906101000a900473ffffffffffffffffffffffffffffffffffffffff16611c3c610f0b565b600a611c4891906142fb565b84611c539190613db4565b610ec4565b50505b600b60003373ffffffffffffffffffffffffffffffffffffffff1673ffffffffffffffffffffffffffffffffffffffff16815260200190815260200160002060000183908060018154018082558091505060019003906000526020600020016000909190919091505560006001811115611cd857611cd7614346565b5b826001811115611ceb57611cea614346565b5b03611d23576001600960008581526020019081526020016000206003016000828254611d179190613b02565b92505081905550611d52565b6001600960008581526020019081526020016000206004016000828254611d4a9190613b02565b925050819055505b6001600960008581526020019081526020016000206007016000828254611d799190613b02565b92505081905550505050565b606060048054611d9490613838565b80601f0160208091040260200160405190810160405280929190818152602001828054611dc090613838565b8015611e0d5780601f10611de257610100808354040283529160200191611e0d565b820191906000526020600020905b815481529060010190602001808311611df057829003601f168201915b5050505050905090565b600080600090505b600780549050811015611f0157611e7360078281548110611e4357611e42613967565b5b9060005260206000200160009054906101000a900473ffffffffffffffffffffffffffffffffffffffff16612990565b8273ffffffffffffffffffffffffffffffffffffffff1660078281548110611e9e57611e9d613967565b5b9060005260206000200160009054906101000a900473ffffffffffffffffffffffffffffffffffffffff1673ffffffffffffffffffffffffffffffffffffffff1603611eee576001915050611f07565b8080611ef990613a28565b915050611e1f565b50600090505b919050565b6060600080600190505b6006548111611f69576009600082815260200190815260200160002060090160009054906101000a900460ff16611f56578180611f5290613a28565b9250505b8080611f6190613a28565b915050611f16565b5060008167ffffffffffffffff811115611f8657611f85613251565b5b604051908082528060200260200182016040528015611fbf57816020015b611fac612eab565b815260200190600190039081611fa45790505b509050600080600190505b6006548111612246576009600082815260200190815260200160002060090160009054906101000a900460ff166122335760096000828152602001908152602001600020604051806101600160405290816000820154815260200160018201805461203490613838565b80601f016020809104026020016040519081016040528092919081815260200182805461206090613838565b80156120ad5780601f10612082576101008083540402835291602001916120ad565b820191906000526020600020905b81548152906001019060200180831161209057829003601f168201915b505050505081526020016002820180546120c690613838565b80601f01602080910402602001604051908101604052809291908181526020018280546120f290613838565b801561213f5780601f106121145761010080835404028352916020019161213f565b820191906000526020600020905b81548152906001019060200180831161212257829003601f168201915b505050505081526020016003820154815260200160048201548152602001600582015481526020016006820160009054906101000a900473ffffffffffffffffffffffffffffffffffffffff1673ffffffffffffffffffffffffffffffffffffffff1673ffffffffffffffffffffffffffffffffffffffff16815260200160078201548152602001600882015481526020016009820160009054906101000a900460ff161515151581526020016009820160019054906101000a900460ff16151515158152505083838151811061221957612218613967565b5b6020026020010181905250818061222f90613a28565b9250505b808061223e90613a28565b915050611fca565b5081935050505090565b60008061225b6127ee565b905061226881858561289c565b600191505092915050565b600560009054906101000a900473ffffffffffffffffffffffffffffffffffffffff1673ffffffffffffffffffffffffffffffffffffffff163373ffffffffffffffffffffffffffffffffffffffff1614612303576040517f08c379a00000000000000000000000000000000000000000000000000000000081526004016122fa90614499565b60405180910390fd5b61230c81611e17565b1561234c576040517f08c379a000000000000000000000000000000000000000000000000000000000815260040161234390614505565b60405180910390fd5b6007819080600181540180825580915050600190039060005260206000200160009091909190916101000a81548173ffffffffffffffffffffffffffffffffffffffff021916908373ffffffffffffffffffffffffffffffffffffffff16021790555060006123b9610f0b565b600a6123c591906142fb565b6113886123d29190613db4565b90506123de8282612250565b61241d576040517f08c379a000000000000000000000000000000000000000000000000000000000815260040161241490614571565b60405180910390fd5b5050565b6000600160008473ffffffffffffffffffffffffffffffffffffffff1673ffffffffffffffffffffffffffffffffffffffff16815260200190815260200160002060008373ffffffffffffffffffffffffffffffffffffffff1673ffffffffffffffffffffffffffffffffffffffff16815260200190815260200160002054905092915050565b6060600080600190505b6006548111612506576009600082815260200190815260200160002060090160009054906101000a900460ff16156124f35781806124ef90613a28565b9250505b80806124fe90613a28565b9150506124b2565b5060008167ffffffffffffffff81111561252357612522613251565b5b60405190808252806020026020018201604052801561255c57816020015b612549612eab565b8152602001906001900390816125415790505b509050600080600190505b60065481116127e4576009600082815260200190815260200160002060090160009054906101000a900460ff16156127d1576009600082815260200190815260200160002060405180610160016040529081600082015481526020016001820180546125d290613838565b80601f01602080910402602001604051908101604052809291908181526020018280546125fe90613838565b801561264b5780601f106126205761010080835404028352916020019161264b565b820191906000526020600020905b81548152906001019060200180831161262e57829003601f168201915b5050505050815260200160028201805461266490613838565b80601f016020809104026020016040519081016040528092919081815260200182805461269090613838565b80156126dd5780601f106126b2576101008083540402835291602001916126dd565b820191906000526020600020905b8154815290600101906020018083116126c057829003601f168201915b505050505081526020016003820154815260200160048201548152602001600582015481526020016006820160009054906101000a900473ffffffffffffffffffffffffffffffffffffffff1673ffffffffffffffffffffffffffffffffffffffff1673ffffffffffffffffffffffffffffffffffffffff16815260200160078201548152602001600882015481526020016009820160009054906101000a900460ff161515151581526020016009820160019054906101000a900460ff1615151515815250508383815181106127b7576127b6613967565b5b602002602001018190525081806127cd90613a28565b9250505b80806127dc90613a28565b915050612567565b5081935050505090565b600033905090565b6128038383836001612a29565b505050565b60006128148484612421565b90507fffffffffffffffffffffffffffffffffffffffffffffffffffffffffffffffff81146128965781811015612886578281836040517ffb8f41b200000000000000000000000000000000000000000000000000000000815260040161287d93929190614591565b60405180910390fd5b61289584848484036000612a29565b5b50505050565b600073ffffffffffffffffffffffffffffffffffffffff168373ffffffffffffffffffffffffffffffffffffffff160361290e5760006040517f96c6fd1e00000000000000000000000000000000000000000000000000000000815260040161290591906134f8565b60405180910390fd5b600073ffffffffffffffffffffffffffffffffffffffff168273ffffffffffffffffffffffffffffffffffffffff16036129805760006040517fec442f0500000000000000000000000000000000000000000000000000000000815260040161297791906134f8565b60405180910390fd5b61298b838383612c00565b505050565b612a26816040516024016129a491906134f8565b6040516020818303038152906040527f2c2ecbc2000000000000000000000000000000000000000000000000000000007bffffffffffffffffffffffffffffffffffffffffffffffffffffffff19166020820180517bffffffffffffffffffffffffffffffffffffffffffffffffffffffff8381831617835250505050612e25565b50565b600073ffffffffffffffffffffffffffffffffffffffff168473ffffffffffffffffffffffffffffffffffffffff1603612a9b5760006040517fe602df05000000000000000000000000000000000000000000000000000000008152600401612a9291906134f8565b60405180910390fd5b600073ffffffffffffffffffffffffffffffffffffffff168373ffffffffffffffffffffffffffffffffffffffff1603612b0d5760006040517f94280d62000000000000000000000000000000000000000000000000000000008152600401612b0491906134f8565b60405180910390fd5b81600160008673ffffffffffffffffffffffffffffffffffffffff1673ffffffffffffffffffffffffffffffffffffffff16815260200190815260200160002060008573ffffffffffffffffffffffffffffffffffffffff1673ffffffffffffffffffffffffffffffffffffffff168152602001908152602001600020819055508015612bfa578273ffffffffffffffffffffffffffffffffffffffff168473ffffffffffffffffffffffffffffffffffffffff167f8c5be1e5ebec7d5bd14f71427d1e84f3dd0314c0f7b2291e5b200ac8c7c3b92584604051612bf19190613407565b60405180910390a35b50505050565b600073ffffffffffffffffffffffffffffffffffffffff168373ffffffffffffffffffffffffffffffffffffffff1603612c52578060026000828254612c469190613b02565b92505081905550612d25565b60008060008573ffffffffffffffffffffffffffffffffffffffff1673ffffffffffffffffffffffffffffffffffffffff16815260200190815260200160002054905081811015612cde578381836040517fe450d38c000000000000000000000000000000000000000000000000000000008152600401612cd593929190614591565b60405180910390fd5b8181036000808673ffffffffffffffffffffffffffffffffffffffff1673ffffffffffffffffffffffffffffffffffffffff16815260200190815260200160002081905550505b600073ffffffffffffffffffffffffffffffffffffffff168273ffffffffffffffffffffffffffffffffffffffff1603612d6e5780600260008282540392505081905550612dbb565b806000808473ffffffffffffffffffffffffffffffffffffffff1673ffffffffffffffffffffffffffffffffffffffff168152602001908152602001600020600082825401925050819055505b8173ffffffffffffffffffffffffffffffffffffffff168373ffffffffffffffffffffffffffffffffffffffff167fddf252ad1be2c89b69c2b068fc378daa952ba7f163c4a11628f55a4df523b3ef83604051612e189190613407565b60405180910390a3505050565b612e3c81612e34612e3f612e60565b63ffffffff16565b50565b60006a636f6e736f6c652e6c6f679050600080835160208501845afa505050565b612f1f819050919050565b508054612e7790613838565b6000825580601f10612e895750612ea8565b601f016020900490600052602060002090810190612ea79190612f29565b5b50565b604051806101600160405280600081526020016060815260200160608152602001600081526020016000815260200160008152602001600073ffffffffffffffffffffffffffffffffffffffff16815260200160008152602001600081526020016000151581526020016000151581525090565b612f276145c8565b565b5b80821115612f42576000816000905550600101612f2a565b5090565b6000604051905090565b600080fd5b600080fd5b6000819050919050565b612f6d81612f5a565b8114612f7857600080fd5b50565b600081359050612f8a81612f64565b92915050565b600060208284031215612fa657612fa5612f50565b5b6000612fb484828501612f7b565b91505092915050565b612fc681612f5a565b82525050565b600081519050919050565b600082825260208201905092915050565b60005b83811015613006578082015181840152602081019050612feb565b60008484015250505050565b6000601f19601f8301169050919050565b600061302e82612fcc565b6130388185612fd7565b9350613048818560208601612fe8565b61305181613012565b840191505092915050565b600073ffffffffffffffffffffffffffffffffffffffff82169050919050565b60006130878261305c565b9050919050565b6130978161307c565b82525050565b60008115159050919050565b6130b28161309d565b82525050565b6000610160820190506130ce600083018e612fbd565b81810360208301526130e0818d613023565b905081810360408301526130f4818c613023565b9050613103606083018b612fbd565b613110608083018a612fbd565b61311d60a0830189612fbd565b61312a60c083018861308e565b61313760e0830187612fbd565b613145610100830186612fbd565b6131536101208301856130a9565b6131616101408301846130a9565b9c9b505050505050505050505050565b6000602082019050818103600083015261318b8184613023565b905092915050565b61319c8161307c565b81146131a757600080fd5b50565b6000813590506131b981613193565b92915050565b600080604083850312156131d6576131d5612f50565b5b60006131e4858286016131aa565b92505060206131f585828601612f7b565b9150509250929050565b600060208201905061321460008301846130a9565b92915050565b6000602082840312156132305761322f612f50565b5b600061323e848285016131aa565b91505092915050565b600080fd5b600080fd5b7f4e487b7100000000000000000000000000000000000000000000000000000000600052604160045260246000fd5b61328982613012565b810181811067ffffffffffffffff821117156132a8576132a7613251565b5b80604052505050565b60006132bb612f46565b90506132c78282613280565b919050565b600067ffffffffffffffff8211156132e7576132e6613251565b5b6132f082613012565b9050602081019050919050565b82818337600083830152505050565b600061331f61331a846132cc565b6132b1565b90508281526020810184848401111561333b5761333a61324c565b5b6133468482856132fd565b509392505050565b600082601f83011261336357613362613247565b5b813561337384826020860161330c565b91505092915050565b60008060006060848603121561339557613394612f50565b5b600084013567ffffffffffffffff8111156133b3576133b2612f55565b5b6133bf8682870161334e565b935050602084013567ffffffffffffffff8111156133e0576133df612f55565b5b6133ec8682870161334e565b92505060406133fd86828701612f7b565b9150509250925092565b600060208201905061341c6000830184612fbd565b92915050565b60008060006060848603121561343b5761343a612f50565b5b6000613449868287016131aa565b935050602061345a868287016131aa565b925050604061346b86828701612f7b565b9150509250925092565b600060ff82169050919050565b61348b81613475565b82525050565b60006020820190506134a66000830184613482565b92915050565b60006080820190506134c16000830187612fbd565b81810360208301526134d38186613023565b90506134e2604083018561308e565b6134ef60608301846130a9565b95945050505050565b600060208201905061350d600083018461308e565b92915050565b6002811061352057600080fd5b50565b60008135905061353281613513565b92915050565b6000806040838503121561354f5761354e612f50565b5b600061355d85828601612f7b565b925050602061356e85828601613523565b9150509250929050565b600081519050919050565b600082825260208201905092915050565b6000819050602082019050919050565b6135ad81612f5a565b82525050565b600082825260208201905092915050565b60006135cf82612fcc565b6135d981856135b3565b93506135e9818560208601612fe8565b6135f281613012565b840191505092915050565b6136068161307c565b82525050565b6136158161309d565b82525050565b60006101608301600083015161363460008601826135a4565b506020830151848203602086015261364c82826135c4565b9150506040830151848203604086015261366682826135c4565b915050606083015161367b60608601826135a4565b50608083015161368e60808601826135a4565b5060a08301516136a160a08601826135a4565b5060c08301516136b460c08601826135fd565b5060e08301516136c760e08601826135a4565b506101008301516136dc6101008601826135a4565b506101208301516136f161012086018261360c565b5061014083015161370661014086018261360c565b508091505092915050565b600061371d838361361b565b905092915050565b6000602082019050919050565b600061373d82613578565b6137478185613583565b93508360208202850161375985613594565b8060005b8581101561379557848403895281516137768582613711565b945061378183613725565b925060208a0199505060018101905061375d565b50829750879550505050505092915050565b600060208201905081810360008301526137c18184613732565b905092915050565b600080604083850312156137e0576137df612f50565b5b60006137ee858286016131aa565b92505060206137ff858286016131aa565b9150509250929050565b7f4e487b7100000000000000000000000000000000000000000000000000000000600052602260045260246000fd5b6000600282049050600182168061385057607f821691505b60208210810361386357613862613809565b5b50919050565b7f4f6e6c79207468652061646d696e2063616e2072656d6f7665206d656d62657260008201527f7300000000000000000000000000000000000000000000000000000000000000602082015250565b60006138c5602183612fd7565b91506138d082613869565b604082019050919050565b600060208201905081810360008301526138f4816138b8565b9050919050565b7f4d656d626572206e6f7420666f756e6400000000000000000000000000000000600082015250565b6000613931601083612fd7565b915061393c826138fb565b602082019050919050565b6000602082019050818103600083015261396081613924565b9050919050565b7f4e487b7100000000000000000000000000000000000000000000000000000000600052603260045260246000fd5b7f4e487b7100000000000000000000000000000000000000000000000000000000600052601160045260246000fd5b60006139d082612f5a565b91506139db83612f5a565b92508282039050818111156139f3576139f2613996565b5b92915050565b7f4e487b7100000000000000000000000000000000000000000000000000000000600052603160045260246000fd5b6000613a3382612f5a565b91507fffffffffffffffffffffffffffffffffffffffffffffffffffffffffffffffff8203613a6557613a64613996565b5b600182019050919050565b7f43616e207375626d6974206f6e6c79206f6e652070726f706f73616c2061742060008201527f612074696d650000000000000000000000000000000000000000000000000000602082015250565b6000613acc602683612fd7565b9150613ad782613a70565b604082019050919050565b60006020820190508181036000830152613afb81613abf565b9050919050565b6000613b0d82612f5a565b9150613b1883612f5a565b9250828201905080821115613b3057613b2f613996565b5b92915050565b60008190508160005260206000209050919050565b60006020601f8301049050919050565b600082821b905092915050565b600060088302613b987fffffffffffffffffffffffffffffffffffffffffffffffffffffffffffffffff82613b5b565b613ba28683613b5b565b95508019841693508086168417925050509392505050565b6000819050919050565b6000613bdf613bda613bd584612f5a565b613bba565b612f5a565b9050919050565b6000819050919050565b613bf983613bc4565b613c0d613c0582613be6565b848454613b68565b825550505050565b600090565b613c22613c15565b613c2d818484613bf0565b505050565b5b81811015613c5157613c46600082613c1a565b600181019050613c33565b5050565b601f821115613c9657613c6781613b36565b613c7084613b4b565b81016020851015613c7f578190505b613c93613c8b85613b4b565b830182613c32565b50505b505050565b600082821c905092915050565b6000613cb960001984600802613c9b565b1980831691505092915050565b6000613cd28383613ca8565b9150826002028217905092915050565b613ceb82612fcc565b67ffffffffffffffff811115613d0457613d03613251565b5b613d0e8254613838565b613d19828285613c55565b600060209050601f831160018114613d4c5760008415613d3a578287015190505b613d448582613cc6565b865550613dac565b601f198416613d5a86613b36565b60005b82811015613d8257848901518255600182019150602085019450602081019050613d5d565b86831015613d9f5784890151613d9b601f891682613ca8565b8355505b6001600288020188555050505b505050505050565b6000613dbf82612f5a565b9150613dca83612f5a565b9250828202613dd881612f5a565b91508282048414831517613def57613dee613996565b5b5092915050565b7f50726f706f73616c206e6f7420636f6d706c6574656420796574000000000000600082015250565b6000613e2c601a83612fd7565b9150613e3782613df6565b602082019050919050565b60006020820190508181036000830152613e5b81613e1f565b9050919050565b7f4f6e6c792070726f706f73616c2063726561746f72206f722061646d696e206360008201527f616e2072656d6f76650000000000000000000000000000000000000000000000602082015250565b6000613ebe602983612fd7565b9150613ec982613e62565b604082019050919050565b60006020820190508181036000830152613eed81613eb1565b9050919050565b7f50726f706f73616c206973206e6f7420636f6d706c6574656420796574000000600082015250565b6000613f2a601d83612fd7565b9150613f3582613ef4565b602082019050919050565b60006020820190508181036000830152613f5981613f1d565b9050919050565b7f4f6e6c792070726f706f73616c2063726561746f72206f722061646d696e206360008201527f616e206d61726b20636f6d706c65746500000000000000000000000000000000602082015250565b6000613fbc603083612fd7565b9150613fc782613f60565b604082019050919050565b60006020820190508181036000830152613feb81613faf565b9050919050565b7f50726f706f73616c20646f6573206e6f74206578697374000000000000000000600082015250565b6000614028601783612fd7565b915061403382613ff2565b602082019050919050565b600060208201905081810360008301526140578161401b565b9050919050565b7f566f74696e6720706572696f64206e6f7420656e646564207965740000000000600082015250565b6000614094601b83612fd7565b915061409f8261405e565b602082019050919050565b600060208201905081810360008301526140c381614087565b9050919050565b7f50726f706f73616c20616c7265616479206d61726b656420636f6d706c657465600082015250565b6000614100602083612fd7565b915061410b826140ca565b602082019050919050565b6000602082019050818103600083015261412f816140f3565b9050919050565b7f44656e6965642050726f706f73616c2063616e2774206265206578656375746560008201527f6400000000000000000000000000000000000000000000000000000000000000602082015250565b6000614192602183612fd7565b915061419d82614136565b604082019050919050565b600060208201905081810360008301526141c181614185565b9050919050565b60008160011c9050919050565b6000808291508390505b600185111561421f578086048111156141fb576141fa613996565b5b600185161561420a5780820291505b8081029050614218856141c8565b94506141df565b94509492505050565b60008261423857600190506142f4565b8161424657600090506142f4565b816001811461425c576002811461426657614295565b60019150506142f4565b60ff84111561427857614277613996565b5b8360020a91508482111561428f5761428e613996565b5b506142f4565b5060208310610133831016604e8410600b84101617156142ca5782820a9050838111156142c5576142c4613996565b5b6142f4565b6142d784848460016141d5565b925090508184048111156142ee576142ed613996565b5b81810290505b9392505050565b600061430682612f5a565b915061431183613475565b925061433e7fffffffffffffffffffffffffffffffffffffffffffffffffffffffffffffffff8484614228565b905092915050565b7f4e487b7100000000000000000000000000000000000000000000000000000000600052602160045260246000fd5b7f4f6e6c7920796573283029206f72206e6f283129206163636570746564000000600082015250565b60006143ab601d83612fd7565b91506143b682614375565b602082019050919050565b600060208201905081810360008301526143da8161439e565b9050919050565b7f566f74696e6720706572696f6420656e64656400000000000000000000000000600082015250565b6000614417601383612fd7565b9150614422826143e1565b602082019050919050565b600060208201905081810360008301526144468161440a565b9050919050565b7f4f6e6c79207468652061646d696e2063616e20616464206d656d626572730000600082015250565b6000614483601e83612fd7565b915061448e8261444d565b602082019050919050565b600060208201905081810360008301526144b281614476565b9050919050565b7f4d656d62657220616c7265616479206578697374730000000000000000000000600082015250565b60006144ef601583612fd7565b91506144fa826144b9565b602082019050919050565b6000602082019050818103600083015261451e816144e2565b9050919050565b7f546f6b656e207472616e73666572206661696c65640000000000000000000000600082015250565b600061455b601583612fd7565b915061456682614525565b602082019050919050565b6000602082019050818103600083015261458a8161454e565b9050919050565b60006060820190506145a6600083018661308e565b6145b36020830185612fbd565b6145c06040830184612fbd565b949350505050565b7f4e487b7100000000000000000000000000000000000000000000000000000000600052605160045260246000fdfea2646970667358221220db650957dd74d97c96c6f7d2fd5f05108fa9c1f95ea8ddc2689c9f5ed36c127964736f6c63430008140033",
  "linkReferences": {},
  "deployedLinkReferences": {}
}